{
  "contractName": "Ad4UMultiSigWallet",
  "abi": [
    {
      "inputs": [
        {
          "internalType": "address",
          "name": "supplier",
          "type": "address"
        }
      ],
      "stateMutability": "nonpayable",
      "type": "constructor"
    },
    {
      "anonymous": false,
      "inputs": [
        {
          "indexed": true,
          "internalType": "address",
          "name": "owner",
          "type": "address"
        },
        {
          "indexed": true,
          "internalType": "uint256",
          "name": "txIndex",
          "type": "uint256"
        }
      ],
      "name": "ConfirmTransaction",
      "type": "event"
    },
    {
      "anonymous": false,
      "inputs": [
        {
          "indexed": true,
          "internalType": "address",
          "name": "sender",
          "type": "address"
        },
        {
          "indexed": false,
          "internalType": "uint256",
          "name": "amount",
          "type": "uint256"
        },
        {
          "indexed": false,
          "internalType": "uint256",
          "name": "balance",
          "type": "uint256"
        }
      ],
      "name": "Deposit",
      "type": "event"
    },
    {
      "anonymous": false,
      "inputs": [
        {
          "indexed": true,
          "internalType": "address",
          "name": "owner",
          "type": "address"
        },
        {
          "indexed": true,
          "internalType": "uint256",
          "name": "txIndex",
          "type": "uint256"
        }
      ],
      "name": "ExecuteTransaction",
      "type": "event"
    },
    {
      "anonymous": false,
      "inputs": [
        {
          "indexed": false,
          "internalType": "bool",
          "name": "success",
          "type": "bool"
        },
        {
          "indexed": false,
          "internalType": "bytes",
          "name": "data",
          "type": "bytes"
        }
      ],
      "name": "Response",
      "type": "event"
    },
    {
      "anonymous": false,
      "inputs": [
        {
          "indexed": true,
          "internalType": "address",
          "name": "owner",
          "type": "address"
        },
        {
          "indexed": true,
          "internalType": "uint256",
          "name": "txIndex",
          "type": "uint256"
        }
      ],
      "name": "RevokeConfirmation",
      "type": "event"
    },
    {
      "anonymous": false,
      "inputs": [
        {
          "indexed": true,
          "internalType": "address",
          "name": "owner",
          "type": "address"
        },
        {
          "indexed": true,
          "internalType": "uint256",
          "name": "txIndex",
          "type": "uint256"
        },
        {
          "indexed": true,
          "internalType": "address",
          "name": "to",
          "type": "address"
        },
        {
          "indexed": false,
          "internalType": "uint256",
          "name": "value",
          "type": "uint256"
        },
        {
          "indexed": false,
          "internalType": "string",
          "name": "data",
          "type": "string"
        }
      ],
      "name": "SubmitTransaction",
      "type": "event"
    },
    {
      "inputs": [
        {
          "internalType": "uint256",
          "name": "",
          "type": "uint256"
        },
        {
          "internalType": "address",
          "name": "",
          "type": "address"
        }
      ],
      "name": "isConfirmed",
      "outputs": [
        {
          "internalType": "bool",
          "name": "",
          "type": "bool"
        }
      ],
      "stateMutability": "view",
      "type": "function"
    },
    {
      "inputs": [
        {
          "internalType": "address",
          "name": "",
          "type": "address"
        }
      ],
      "name": "isOwner",
      "outputs": [
        {
          "internalType": "bool",
          "name": "",
          "type": "bool"
        }
      ],
      "stateMutability": "view",
      "type": "function"
    },
    {
      "inputs": [],
      "name": "numConfirmationsRequired",
      "outputs": [
        {
          "internalType": "uint256",
          "name": "",
          "type": "uint256"
        }
      ],
      "stateMutability": "view",
      "type": "function"
    },
    {
      "inputs": [],
      "name": "ownerCandidate",
      "outputs": [
        {
          "internalType": "address",
          "name": "",
          "type": "address"
        }
      ],
      "stateMutability": "view",
      "type": "function"
    },
    {
      "inputs": [
        {
          "internalType": "uint256",
          "name": "",
          "type": "uint256"
        }
      ],
      "name": "owners",
      "outputs": [
        {
          "internalType": "address",
          "name": "",
          "type": "address"
        }
      ],
      "stateMutability": "view",
      "type": "function"
    },
    {
      "inputs": [
        {
          "internalType": "uint256",
          "name": "",
          "type": "uint256"
        }
      ],
      "name": "transactions",
      "outputs": [
        {
          "internalType": "address",
          "name": "to",
          "type": "address"
        },
        {
          "internalType": "uint256",
          "name": "value",
          "type": "uint256"
        },
        {
          "internalType": "string",
          "name": "data",
          "type": "string"
        },
        {
          "internalType": "bool",
          "name": "executed",
          "type": "bool"
        },
        {
          "internalType": "uint256",
          "name": "numConfirmations",
          "type": "uint256"
        },
        {
          "internalType": "bool",
          "name": "broken",
          "type": "bool"
        }
      ],
      "stateMutability": "view",
      "type": "function"
    },
    {
      "stateMutability": "payable",
      "type": "receive"
    },
    {
      "inputs": [
        {
          "internalType": "address",
          "name": "_to",
          "type": "address"
        },
        {
          "internalType": "uint256",
          "name": "_value",
          "type": "uint256"
        },
        {
          "internalType": "string",
          "name": "_data",
          "type": "string"
        }
      ],
      "name": "submitTransaction",
      "outputs": [
        {
          "internalType": "uint256",
          "name": "",
          "type": "uint256"
        }
      ],
      "stateMutability": "payable",
      "type": "function"
    },
    {
      "inputs": [
        {
          "internalType": "uint256",
          "name": "_txIndex",
          "type": "uint256"
        }
      ],
      "name": "confirmTransaction",
      "outputs": [],
      "stateMutability": "nonpayable",
      "type": "function"
    },
    {
      "inputs": [
        {
          "internalType": "uint256",
          "name": "_txIndex",
          "type": "uint256"
        }
      ],
      "name": "executeTransaction",
      "outputs": [],
      "stateMutability": "nonpayable",
      "type": "function"
    },
    {
      "inputs": [
        {
          "internalType": "uint256",
          "name": "_txIndex",
          "type": "uint256"
        }
      ],
      "name": "revokeConfirmation",
      "outputs": [],
      "stateMutability": "nonpayable",
      "type": "function"
    },
    {
      "inputs": [],
      "name": "SupplierSign",
      "outputs": [],
      "stateMutability": "nonpayable",
      "type": "function"
    },
    {
      "inputs": [],
      "name": "getOwners",
      "outputs": [
        {
          "internalType": "address[]",
          "name": "",
          "type": "address[]"
        }
      ],
      "stateMutability": "view",
      "type": "function"
    },
    {
      "inputs": [],
      "name": "getTransactionCount",
      "outputs": [
        {
          "internalType": "uint256",
          "name": "",
          "type": "uint256"
        }
      ],
      "stateMutability": "view",
      "type": "function"
    },
    {
      "inputs": [
        {
          "internalType": "uint256",
          "name": "_txIndex",
          "type": "uint256"
        }
      ],
      "name": "getTransaction",
      "outputs": [
        {
          "internalType": "address",
          "name": "to",
          "type": "address"
        },
        {
          "internalType": "uint256",
          "name": "value",
          "type": "uint256"
        },
        {
          "internalType": "string",
          "name": "data",
          "type": "string"
        },
        {
          "internalType": "bool",
          "name": "executed",
          "type": "bool"
        },
        {
          "internalType": "uint256",
          "name": "numConfirmations",
          "type": "uint256"
        }
      ],
      "stateMutability": "view",
      "type": "function"
    }
  ],
  "bytecode": "0x608060405260006002553480156200001657600080fd5b50604051620019c2380380620019c2833981016040819052620000399162000142565b336000818152600360205260408120805460ff19166001908117909155815490810182559080527f290decd9548b62a8d60345a988386fc84ba6bc95484008f6362f93160ef3e5630180546001600160a01b031916821790556001600160a01b038216811415620001005760405162461bcd60e51b815260206004820152602760248201527f596f752063616e6e6f742073657420796f757273656c66206173206120636f6e6044820152667472616374656560c81b606482015260840160405180910390fd5b600180546001600160a01b0319166001600160a01b0384161781556002600481905580546000906200013490849062000174565b909155506200019b92505050565b6000602082840312156200015557600080fd5b81516001600160a01b03811681146200016d57600080fd5b9392505050565b600082198211156200019657634e487b7160e01b600052601160045260246000fd5b500190565b61181780620001ab6000396000f3fe6080604052600436106100e15760003560e01c806380f59a651161007f578063a3125db511610059578063a3125db5146102dc578063c01a8c84146102f1578063d0549b8514610311578063ee22610b1461032757600080fd5b806380f59a651461024d5780639ace38c214610288578063a0e67e2b146102ba57600080fd5b80632e7700f0116100bb5780632e7700f0146101a75780632f54bf6e146101bc57806333ea3dc8146101fc5780635f504a821461022d57600080fd5b8063025e7c271461012757806303d79d281461016457806320ea8d861461018557600080fd5b36610122576040805134815247602082015233917f90890809c654f11d6e72a28fa60149770a0d11ec6c92319d6ceb2bb0a4ea1a15910160405180910390a2005b600080fd5b34801561013357600080fd5b506101476101423660046112d8565b610347565b6040516001600160a01b0390911681526020015b60405180910390f35b610177610172366004611323565b610371565b60405190815260200161015b565b34801561019157600080fd5b506101a56101a03660046112d8565b61076c565b005b3480156101b357600080fd5b50600654610177565b3480156101c857600080fd5b506101ec6101d73660046113ee565b60036020526000908152604090205460ff1681565b604051901515815260200161015b565b34801561020857600080fd5b5061021c6102173660046112d8565b6109f4565b60405161015b95949392919061146c565b34801561023957600080fd5b50600154610147906001600160a01b031681565b34801561025957600080fd5b506101ec6102683660046114a7565b600560209081526000928352604080842090915290825290205460ff1681565b34801561029457600080fd5b506102a86102a33660046112d8565b610aef565b60405161015b969594939291906114d3565b3480156102c657600080fd5b506102cf610bd1565b60405161015b919061151a565b3480156102e857600080fd5b506101a5610c33565b3480156102fd57600080fd5b506101a561030c3660046112d8565b610d1f565b34801561031d57600080fd5b5061017760045481565b34801561033357600080fd5b506101a56103423660046112d8565b610f12565b6000818154811061035757600080fd5b6000918252602090912001546001600160a01b0316905081565b60008060008154811061038657610386611567565b6000918252602090912001546001600160a01b031633146103c25760405162461bcd60e51b81526004016103b99061157d565b60405180910390fd5b6002546002146104145760405162461bcd60e51b815260206004820152601f60248201527f4e65656420746865207369676e206f662074686520636f6e747261637465650060448201526064016103b9565b600060018154811061042857610428611567565b6000918252602090912001546001600160a01b0385811691161461048e5760405162461bcd60e51b815260206004820152601860248201527f496e7661696c642072656365697665722061646472657373000000000000000060448201526064016103b9565b600654348411156104d45760405162461bcd60e51b815260206004820152601060248201526f4e6f7420456e6f7567682076616c756560801b60448201526064016103b9565b60405173aa30c281319885c57d409531c25db7d83dcd76469060009081908390610504908a9089906024016115c6565b60408051601f198184030181529181526020820180516001600160e01b03166324dcfe6b60e21b1790525161053991906115f2565b6000604051808303816000865af19150503d8060008114610576576040519150601f19603f3d011682016040523d82523d6000602084013e61057b565b606091505b5091509150816105ba5760405162461bcd60e51b815260206004820152600a602482015269151e08125b9d985a5b1960b21b60448201526064016103b9565b6040805160c0810182526001600160a01b038a8116825260208083018b81529383018a81526000606085018190526080850181905260a08501819052600680546001810182559181905285517ff652222313e28459528d920b65115c16c04f3efc82aaedc97be59f3f377c0d3f9290910291820180546001600160a01b0319169190951617845594517ff652222313e28459528d920b65115c16c04f3efc82aaedc97be59f3f377c0d408601555180519394929361069f937ff652222313e28459528d920b65115c16c04f3efc82aaedc97be59f3f377c0d410192919091019061123f565b50606082015160038201805491151560ff199283161790556080830151600483015560a09092015160059091018054911515919092161790556040517f13848c3e38f8886f3f5d2ad9dff80d8092c2bbb8efd5b887a99c2c6cfc09ac2a9061070a908490849061160e565b60405180910390a1876001600160a01b031684336001600160a01b03167f557adc301c59c014874da9dd74ad580f3d8a99947a7df3947967947d8e89920e8a8a604051610758929190611629565b60405180910390a450919695505050505050565b3360009081526003602052604090205460ff166107b75760405162461bcd60e51b81526020600482015260096024820152683737ba1037bbb732b960b91b60448201526064016103b9565b600654819081106107da5760405162461bcd60e51b81526004016103b990611642565b81600681815481106107ee576107ee611567565b600091825260209091206003600690920201015460ff16156108225760405162461bcd60e51b81526004016103b99061166d565b826006818154811061083657610836611567565b600091825260209091206005600690920201015460ff161561086a5760405162461bcd60e51b81526004016103b99061169a565b60006006858154811061087f5761087f611567565b600091825260208083208884526005825260408085203386529092529220546006909102909101915060ff166108ea5760405162461bcd60e51b815260206004820152601060248201526f1d1e081b9bdd0818dbdb999a5c9b595960821b60448201526064016103b9565b60018160040160008282546108ff91906116db565b909155505060008581526005602090815260408083203384529091528120805460ff1916905580548190819061093757610937611567565b60009182526020822001546040516001600160a01b03909116925082904780156108fc029184818181858888f193505050509050806109af5760405162461bcd60e51b81526020600482015260146024820152732330b4b632b2103a379039b2b7321022ba3432b960611b60448201526064016103b9565b60058301805460ff19166001179055604051879033907ff0dca620e2e81f7841d07bcc105e1704fb01475b278a9d4c236e1c62945edd5590600090a350505050505050565b6000806060600080600060068781548110610a1157610a11611567565b6000918252602090912060069091020180546001820154600383015460048401546002850180549596506001600160a01b039094169492939260ff909216918390610a5b906116f2565b80601f0160208091040260200160405190810160405280929190818152602001828054610a87906116f2565b8015610ad45780601f10610aa957610100808354040283529160200191610ad4565b820191906000526020600020905b815481529060010190602001808311610ab757829003601f168201915b50505050509250955095509550955095505091939590929450565b60068181548110610aff57600080fd5b60009182526020909120600690910201805460018201546002830180546001600160a01b039093169450909291610b35906116f2565b80601f0160208091040260200160405190810160405280929190818152602001828054610b61906116f2565b8015610bae5780601f10610b8357610100808354040283529160200191610bae565b820191906000526020600020905b815481529060010190602001808311610b9157829003601f168201915b5050505060038301546004840154600590940154929360ff918216939092501686565b60606000805480602002602001604051908101604052809291908181526020018280548015610c2957602002820191906000526020600020905b81546001600160a01b03168152600190910190602001808311610c0b575b5050505050905090565b6001546001600160a01b03163314610c995760405162461bcd60e51b815260206004820152602360248201527f596f7520617265206e6f742061207265676973746572656420636f6e747261636044820152623a37b960e91b60648201526084016103b9565b600180546000805480840182557f290decd9548b62a8d60345a988386fc84ba6bc95484008f6362f93160ef3e5630180546001600160a01b03199081166001600160a01b039485161790915583549092168152600360205260408120805460ff1916841790558254909116825560028054909190610d1890849061172d565b9091555050565b3360009081526003602052604090205460ff16610d6a5760405162461bcd60e51b81526020600482015260096024820152683737ba1037bbb732b960b91b60448201526064016103b9565b60065481908110610d8d5760405162461bcd60e51b81526004016103b990611642565b8160068181548110610da157610da1611567565b600091825260209091206003600690920201015460ff1615610dd55760405162461bcd60e51b81526004016103b99061166d565b6000838152600560209081526040808320338452909152902054839060ff1615610e385760405162461bcd60e51b81526020600482015260146024820152731d1e08185b1c9958591e4818dbdb999a5c9b595960621b60448201526064016103b9565b8360068181548110610e4c57610e4c611567565b600091825260209091206005600690920201015460ff1615610e805760405162461bcd60e51b81526004016103b99061169a565b600060068681548110610e9557610e95611567565b906000526020600020906006020190506001816004016000828254610eba919061172d565b90915550506000868152600560209081526040808320338085529252808320805460ff191660011790555188927f5cbe105e36805f7820e291f799d5794ff948af2a5f664e580382defb6339004191a3505050505050565b60008081548110610f2557610f25611567565b6000918252602090912001546001600160a01b03163314610f585760405162461bcd60e51b81526004016103b99061157d565b60065481908110610f7b5760405162461bcd60e51b81526004016103b990611642565b8160068181548110610f8f57610f8f611567565b600091825260209091206003600690920201015460ff1615610fc35760405162461bcd60e51b81526004016103b99061166d565b8260068181548110610fd757610fd7611567565b600091825260209091206005600690920201015460ff161561100b5760405162461bcd60e51b81526004016103b99061169a565b60006006858154811061102057611020611567565b906000526020600020906006020190506004548160040154101561107a5760405162461bcd60e51b81526020600482015260116024820152700c6c2dcdcdee840caf0cac6eae8ca40e8f607b1b60448201526064016103b9565b60038101805460ff19166001908117909155815490820154604080516004815260248101918290526000936001600160a01b031692916110be906002870190611745565b60408051918290039091206020830180516001600160e01b03166001600160e01b0319909216919091179052516110f591906115f2565b60006040518083038185875af1925050503d8060008114611132576040519150601f19603f3d011682016040523d82523d6000602084013e611137565b606091505b50509050806111745760405162461bcd60e51b81526020600482015260096024820152681d1e0819985a5b195960ba1b60448201526064016103b9565b471561120a5760008060008154811061118f5761118f611567565b60009182526020822001546040516001600160a01b03909116925082904780156108fc029184818181858888f193505050509050806112075760405162461bcd60e51b81526020600482015260146024820152732330b4b632b2103a379039b2b7321022ba3432b960611b60448201526064016103b9565b50505b604051869033907f5445f318f4f5fcfb66592e68e0cc5822aa15664039bd5f0ffde24c5a8142b1ac90600090a3505050505050565b82805461124b906116f2565b90600052602060002090601f01602090048101928261126d57600085556112b3565b82601f1061128657805160ff19168380011785556112b3565b828001600101855582156112b3579182015b828111156112b3578251825591602001919060010190611298565b506112bf9291506112c3565b5090565b5b808211156112bf57600081556001016112c4565b6000602082840312156112ea57600080fd5b5035919050565b80356001600160a01b038116811461130857600080fd5b919050565b634e487b7160e01b600052604160045260246000fd5b60008060006060848603121561133857600080fd5b611341846112f1565b925060208401359150604084013567ffffffffffffffff8082111561136557600080fd5b818601915086601f83011261137957600080fd5b81358181111561138b5761138b61130d565b604051601f8201601f19908116603f011681019083821181831017156113b3576113b361130d565b816040528281528960208487010111156113cc57600080fd5b8260208601602083013760006020848301015280955050505050509250925092565b60006020828403121561140057600080fd5b611409826112f1565b9392505050565b60005b8381101561142b578181015183820152602001611413565b8381111561143a576000848401525b50505050565b60008151808452611458816020860160208601611410565b601f01601f19169290920160200192915050565b60018060a01b038616815284602082015260a06040820152600061149360a0830186611440565b931515606083015250608001529392505050565b600080604083850312156114ba57600080fd5b823591506114ca602084016112f1565b90509250929050565b60018060a01b038716815285602082015260c0604082015260006114fa60c0830187611440565b9415156060830152506080810192909252151560a0909101529392505050565b6020808252825182820181905260009190848201906040850190845b8181101561155b5783516001600160a01b031683529284019291840191600101611536565b50909695505050505050565b634e487b7160e01b600052603260045260246000fd5b60208082526029908201527f54686973206665617475726520697320617661696c61626c65206f6e6c7920666040820152681bdc8818db1a595b9d60ba1b606082015260800190565b6001600160a01b03831681526040602082018190526000906115ea90830184611440565b949350505050565b60008251611604818460208701611410565b9190910192915050565b82151581526040602082015260006115ea6040830184611440565b8281526040602082015260006115ea6040830184611440565b6020808252601190820152701d1e08191bd95cc81b9bdd08195e1a5cdd607a1b604082015260600190565b6020808252601390820152721d1e08185b1c9958591e48195e1958dd5d1959606a1b604082015260600190565b6020808252601190820152703a3c1030b63932b0b23c90313937b5b2b760791b604082015260600190565b634e487b7160e01b600052601160045260246000fd5b6000828210156116ed576116ed6116c5565b500390565b600181811c9082168061170657607f821691505b6020821081141561172757634e487b7160e01b600052602260045260246000fd5b50919050565b60008219821115611740576117406116c5565b500190565b600080835481600182811c91508083168061176157607f831692505b602080841082141561178157634e487b7160e01b86526022600452602486fd5b81801561179557600181146117a6576117d3565b60ff198616895284890196506117d3565b60008a81526020902060005b868110156117cb5781548b8201529085019083016117b2565b505084890196505b50949897505050505050505056fea2646970667358221220f5e904e2ba265104d857a5629a27229fc1d1225b9b51e7d1852464e0cd09bd1164736f6c634300080a0033",
  "immutableReferences": {},
  "source": "// SPDX-License-Identifier: MIT\npragma solidity ^0.8.10;\n\n\ncontract Ad4UMultiSigWallet {\n    event Deposit(address indexed sender, uint amount, uint balance);\n    event SubmitTransaction(\n        address indexed owner,\n        uint indexed txIndex,\n        address indexed to,\n        uint value,\n        string data\n    );\n    event ConfirmTransaction(address indexed owner, uint indexed txIndex);\n    event RevokeConfirmation(address indexed owner, uint indexed txIndex);\n    event ExecuteTransaction(address indexed owner, uint indexed txIndex);\n    event Response(bool success, bytes data);\n\n    address[] public owners;\n    address public ownerCandidate;\n    uint signedCount = 0;\n    mapping(address => bool) public isOwner;\n    uint public numConfirmationsRequired;\n\n\n    struct Transaction {\n        address to;\n        uint value;\n        string data; // tokenURI    string\n        bool executed;\n        uint numConfirmations;\n        bool broken; //  \n    }\n\n    // mapping from tx index => owner => bool\n    mapping(uint => mapping(address => bool)) public isConfirmed;\n\n    Transaction[] public transactions;\n\n    modifier onlyOwner() {\n        require(isOwner[msg.sender], \"not owner\");\n        _;\n    }\n\n    modifier txExists(uint _txIndex) {\n        require(_txIndex < transactions.length, \"tx does not exist\");\n        _;\n    }\n\n    modifier notExecuted(uint _txIndex) {\n        require(!transactions[_txIndex].executed, \"tx already executed\");\n        _;\n    }\n\n    modifier notConfirmed(uint _txIndex) {\n        require(!isConfirmed[_txIndex][msg.sender], \"tx already confirmed\");\n        _;\n    }\n\n    modifier notBroken(uint _txIndex) {\n        require(!transactions[_txIndex].broken, \"tx already broken\");\n        _;\n    }\n\n    //      \n    modifier onlyOwnerCandidate() {\n        require(msg.sender == ownerCandidate, \"You are not a registered contractor\");\n        _;\n    }\n\n    //      \n    modifier onlyClient() {\n        require(msg.sender == owners[0], \"This feature is available only for client\");\n        _;\n    }\n\n    //      \n    modifier signedCountCheck() {\n        require(signedCount == 2, \"Need the sign of the contractee\");\n        _;\n    }\n\n    // msg.sender : \n    //SupplierSign   Sign ,       owner \n    constructor(address supplier) {\n        //  owner ( wallet   )\n        address owner = address(msg.sender);\n        isOwner[owner] = true;\n        owners.push(owner);\n\n        //       \n        require(owner != supplier, \"You cannot set yourself as a contractee\");\n\n        //   owner  \n        ownerCandidate = supplier;\n\n        //numConfirmationRequired    2 \n        numConfirmationsRequired = 2;\n\n        // signedCount \n        signedCount += 1;\n    }\n\n    //anyone can deposit funds into the wallet and emit an event called depositfunds\n    receive() external payable {\n        emit Deposit(msg.sender, msg.value, address(this).balance);\n    }\n\n\n    function submitTransaction(\n        address _to,\n        uint _value,\n        string memory _data // metadata URL(tokenURI) => metadata   \n    ) \n    public \n    payable\n    onlyClient  //      \n    signedCountCheck // ,   Sign  \n    returns (uint)\n    {\n        require(_to == owners[1], \"Invaild receiver address\"); // _to   \n        uint txIndex = transactions.length;\n\n        // ,  wei\n        require(msg.value >= _value, \"Not Enough value\"); //    .\n\n        //SBT Minting : call\n        address sbtContract = 0xAa30c281319885c57d409531C25dB7d83DCd7646;\n        (bool success, bytes memory data) = address(sbtContract).call(\n            abi.encodeWithSignature(\"mintSBT(address,string)\", _to, _data)\n        );\n\n        require(success, \"Tx Invaild\");\n\n        transactions.push(\n            Transaction({\n                to: _to,\n                value: _value,\n                data: _data, // SBT tokenURI  \n                executed: false,\n                numConfirmations: 0,\n                broken: false\n            })\n        );\n        emit Response(success, data);\n        emit SubmitTransaction(msg.sender, txIndex, _to, _value, _data);\n        return txIndex;\n    }\n\n    function confirmTransaction(uint _txIndex)\n        public\n        onlyOwner\n        txExists(_txIndex)\n        notExecuted(_txIndex)\n        notConfirmed(_txIndex)\n        notBroken(_txIndex)\n    {\n        Transaction storage transaction = transactions[_txIndex];\n        transaction.numConfirmations += 1;\n        isConfirmed[_txIndex][msg.sender] = true;\n\n        emit ConfirmTransaction(msg.sender, _txIndex);\n    }\n\n    function executeTransaction(uint _txIndex)\n        public\n        onlyClient\n        txExists(_txIndex)\n        notExecuted(_txIndex)\n        notBroken(_txIndex)\n    {\n        Transaction storage transaction = transactions[_txIndex];\n\n        require(\n            transaction.numConfirmations >= numConfirmationsRequired,\n            \"cannot execute tx\"\n        );\n\n        transaction.executed = true;\n\n        //   ,  \n        (bool success, ) = transaction.to.call{value: transaction.value}(\n            abi.encodeWithSignature(transaction.data)\n        );\n        require(success, \"tx failed\");\n\n        //      \n        if(address(this).balance > 0) {\n            address payable client = payable(owners[0]);\n            bool sent = client.send(address(this).balance);\n            require(sent, \"Failed to send Ether\");\n        }\n\n        emit ExecuteTransaction(msg.sender, _txIndex);\n    }\n\n    function revokeConfirmation(uint _txIndex)\n        public\n        onlyOwner\n        txExists(_txIndex)\n        notExecuted(_txIndex)\n        notBroken(_txIndex)\n    {\n        Transaction storage transaction = transactions[_txIndex];\n\n        require(isConfirmed[_txIndex][msg.sender], \"tx not confirmed\");\n\n        transaction.numConfirmations -= 1;\n        isConfirmed[_txIndex][msg.sender] = false;\n\n        //  ,      \n        address payable client = payable(owners[0]);\n        bool sent = client.send(address(this).balance);\n        require(sent, \"Failed to send Ether\");\n\n        transaction.broken = true; //  \n\n        emit RevokeConfirmation(msg.sender, _txIndex);\n    }\n\n    //  \n    function SupplierSign()\n     public \n     onlyOwnerCandidate //      \n    {\n        // owner \n        owners.push(ownerCandidate); \n        isOwner[ownerCandidate] = true;\n\n        delete ownerCandidate; //  \n        signedCount += 1; // signedCount \n        \n    }\n\n\n    function getOwners() public view returns (address[] memory) {\n        return owners;\n    }\n\n    function getTransactionCount() public view returns (uint) {\n        return transactions.length;\n    }\n\n    function getTransaction(uint _txIndex)\n        public\n        view\n        returns (\n            address to,\n            uint value,\n            string memory data,\n            bool executed,\n            uint numConfirmations\n        )\n    {\n        Transaction storage transaction = transactions[_txIndex];\n\n        return (\n            transaction.to,\n            transaction.value,\n            transaction.data,\n            transaction.executed,\n            transaction.numConfirmations\n        );\n    }\n}\n",
  "sourcePath": "/Users/gimhyeon-u/Desktop/github/BEB-06-Ad4U/contract/contracts/Ad4UMultiSigWallet.sol",
  "compiler": {
    "name": "solc",
    "version": "0.8.10+commit.fc410830.Emscripten.clang"
  },
  "schemaVersion": "3.4.10",
  "updatedAt": "2022-11-15T10:36:04.373Z",
  "devdoc": {
    "kind": "dev",
    "methods": {},
    "version": 1
  },
  "userdoc": {
    "kind": "user",
    "methods": {},
    "version": 1
  }
}